:020000040800F2
:1000000028E7002039A00008B50F0008B70F000846
:10001000B90F0008BB0F0008BD0F0008000000006A
:10002000000000000000000000000000BF0F0008FA
:10003000C10F0008000000009B990108AD8C00086A
:1000400053A0000853A0000853A000082B66000826
:1000500053A0000853A00008AF610008D161000858
:1000600007620008296200084B62000853A00008DC
:1000700053A0000853A0000853A0000853A0000894
:1000800053A0000853A0000853A0000853A0000884
:1000900053A0000853A0000853A0000853A0000874
:1000A00053A0000853A0000853A0000853A0000864
:1000B0005396000853A00008E55F000853A000080D
:1000C00053A0000853A0000853A0000853A0000844
:1000D00053A0000853A00008055E0008ED5B00086F
:1000E00053A0000853A0000853A0000853A0000824
:1000F00053A0000853A0000853A0000853A0000814
:1001000053A00008296B010853A0000853A0000861
:100110002F0E000853A0000853A000082B5F000812
:1001200053A0000853A0000853A0000853A00008E3
:1001300000F002F800F0B0F80AA090E8000C824449
:100140008344AAF10107DA4501D100F0A5F8AFF226
:10015000090EBAE80F0013F0010F18BFFB1A43F0A5
:100160000103184738D0010058D001000A444FF06D
:10017000000C10F8013B13F0070408BF10F8014B06
:100180001D1108BF10F8015B641E05D010F8016B4B
:10019000641E01F8016BF9D113F0080F1EBF10F8AF
:1001A000014BAD1C0C1B09D16D1E58BF01F801CBD2
:1001B000FAD505E014F8016B01F8016B6D1EF9D555
:1001C0009142D6D37047000000230024002500266A
:1001D000103A28BF78C1FBD8520728BF30C148BFAA
:1001E0000B6070476E2917F02182702916F0CB86BC
:1001F00066291AF0388565291AF0358567291AF0BD
:10020000328561291AF0318503681B0A28BF41F045
:100210008001692916F03C86642916F03986752913
:1002200016F036866F2917F02785782916F09786FD
:10023000E92917F0C184E42917F0BE84F52917F0E5
:10024000BB84EF2917F02485F82916F096860368F9
:10025000DB0928BF41F08001632917F0308473293E
:1002600017F03584E32918F00180F32918F006808F
:10027000002070471FB517F0DFFD040000200021AB
:1002800019F0F6FC401C60600020002119F0DAFC37
:10029000E0601FBD10B510BD18F090FA1146FFF7D1
:1002A000E9FF00F052FD18F00FFD03B4FFF7F2FF75
:1002B00003BC08F07FFD00000EB5FDA016F076FD32
:1002C0000BF0BFFD3C21B0FBF1F0FCA016F06EFD81
:1002D000FE4C02AD08264FF4FA770022CDE9006506
:1002E0003B461146104612F08DF96179F8A016F0E0
:1002F0005DFD6079801E0628EFD2DFE800F0030E76
:100300001A28364403206071A08B80B205F090FB60
:10031000F149F2A005F081FADFE7208C80B205F008
:1003200087FBED49EEA005F078FA6079401C60711A
:10033000D3E7A06A1AF00AFB80B205F079FBE64920
:10034000E8A005F06AFA6079401C6071C5E7E06AD0
:100350001AF0FCFA80B205F06BFBDF49E3A005F070
:100360005CFA6079401C6071B7E7206B1AF0EEFA16
:1003700080B205F05DFBD849DEA005F04EFA607949
:10038000401C6071A9E7606A1AF0E0FA80B205F0DB
:100390004FFBD149D9A005F040FA022060719CE7DB
:1003A0001CB54FF6FF7000904FF4B973FA22A021EC
:1003B000002004F063FF1024D1A0CDE900402346C3
:1003C000C8222821002005F08FF9CFA0CDE90040F8
:1003D0001023C8222821782005F086F9CCA0CDE989
:1003E00000401023C8223C21002005F07DF9CAA05E
:1003F000CDE900401023C8223C21782005F074F993
:10040000C7A0CDE900401023C8225021002005F0EC
:100410006BF9C5A0CDE900401023C82250217820F7
:1004200005F062F9C2A0CDE900401023C822642182
:10043000002005F059F9C0A0CDE900401023C822E2
:100440006421782005F050F91CBD08B54FF6E07026
:1004500000904FF4B973FA22A021002004F00EFF9F
:10046000B421002013F0CAFBB421002013F065FC76
:10047000012804D0022807D00328F5D108BDB0A177
:10048000B2A005F03BFCEFE7002014F0C4FAEBE764
:1004900088B0B1A016F08AFCB2A016F087FCB34D6C
:1004A0002C4601F0FAFBB24801688847874940F2C0
:1004B000C530C86140F243100861AE484862002070
:1004C000486140F24E700862AB488862AB48C8622F
:1004D000AB480863FFF764FF06F0FAFD204606F01C
:1004E000F9FDA84F0DF114080DF108094FF01F0A8E
:1004F0001026F8790090BB79BA88A3A105A816F058
:1005000061FCB87800907B783A78A3A102A816F035
:1005100059FCA548A0F800A0CDE9006800211023EF
:10052000C822084605F0E0F8CDE900691023C8228A
:100530000021782005F0D8F8644828213430CDE92E
:1005400000601023C822084605F0CEF85F4810234B
:100550003E30CDE90060C8222821A02005F0C4F873
:100560005A4810233930CDE90060C8223C212820A8
:1005700005F0BAF88D481023CDE90060C8223C216F
:10058000A02005F0B1F8894810230A38CDE90060B1
:10059000C8225021282005F0A7F8844810230A30EB
:1005A000CDE90060C8225021A02005F09DF8474801
:1005B00010230C30CDE90060C8226421282005F00A
:1005C00093F87A4810231430CDE90060C8226421E2
:1005D000AA2005F089F806F07BFD204606F07AFD9A
:1005E000204606F077FD4FF07E5120461AF068F85D
:1005F00004466F48844200D10024B421002013F047
:10060000FDFAB421002013F098FB8346BBF1000FE4
:100610003FF46FAF594667A016F0C8FBBBF1010F5E
:100620001AD0BBF1020F1CD0BBF1030F1ED0BBF1DF
:10063000040F7FF45EAF20462C46A04200D1002478
:1006400020461AF011F802460B465DA016F0AEFBEC
:10065000204606F03FFD4CE713F09EFCFFF7A0FE9E
:1006600047E714F0EBF8FFF79BFE42E7FFF7EDFEDC
:10067000FFF796FE3DE70EB555A016F097FB00F08C
:100680005BFD06F00DFC0020029001900090534F9E
:100690000126DFF84CA14FF0050900254FF0FF08B7
:1006A0000A4CA06918B1019808B901209AE09DE0B0
:1006B0006E657453544152540D0A00006E6E6E659F
:1006C000656565747474740D0A00000000000020F4
:1006D00077686F3D2564000060000020636F320082
:1006E000616C740074656D700000000068756D6960
:1006F0000000000061746D6F730000006C7578007D
:10070000434F323A00000000414C543A00000000D0
:1007100054564F433A00000054454D503A000000F3
:100720004C55583A0000000048554D493A00000029
:10073000464952453A00000041544D4F533A00009B
:100740003135353730303532363037004154442575
:10075000733B0D0A000000007274635354415254FD
:100760000D0A0000094F0D0A000000000000B4420D
:100770009C0000206666C043A470C141AE472F4272
:10078000AE47A147BE2D0020253034642D253032E0
:10079000642D25303264000020253032643A253043
:1007A00032643A25303264005A0000209A03002057
:1007B000000087436B65793D25640D0A0000000049
:1007C000616E676C653D252E32660D0A00000000E3
:1007D0004E464353544152540D0A000090000020ED
:1007E0008000002014F017F901200190606930B1F9
:1007F000029820B9022014F00EF90120029020691D
:10080000B0F5C87F06DB009820B9032014F003F987
:1008100001200090002000F09FFC012804D0022855
:1008200009D003280ED010E0FEA016F0BFFA6670C3
:10083000A570E57009E06570A670E570FCA016F083
:10084000B5FA02E06570A570E670607801280BD1FA
:1008500006F033FBA07140B101281BD0022819D04B
:10086000032817D0042815D026E16581002061896E
:100870003A5C01EB810102EB41016181401C0428DB
:10088000F5DBEE494FF47840088005F01AFD06F0DC
:10089000EFFA11E16581002061893A5C01EB810189
:1008A00002EB41016181401C0428F5DB267105F053
:1008B000FEFCA179E2A016F079FA06F0D9FAFBE085
:1008C000002000F049FC012802D16670A570E57097
:1008D000032802D16570A570E670DD49522006F04C
:1008E000DBF80028C0D1DB4806F0FEF80028BBD1B9
:1008F0009AF80010FF290BD19AF80100FF2807D1C0
:100900009AF80200FF2803D19AF80300FF2804D0C8
:10091000D1480278FF2A02D00AE0E5712BE0427844
:10092000FF2A05D18278FF2A02D1C078FF2804D09F
:10093000CA480278FF2A02D00AE0E6711BE042783A
:10094000FF2A05D18278FF2A02D1C078FF2804D07F
:10095000C3480278FF2A03D00BE00220E0710AE0CE
:100960004278FF2A05D18278FF2A02D1C078FF2879
:100970005DD00420E0713878884210D179789AF8F7
:10098000012091420BD1B9789AF80220914206D108
:10099000F9789AF80320914201D184F80790AE4982
:1009A0000A7890420DD17A784B789A4209D1BA7878
:1009B0008B789A4205D1FA78CB789A4201D184F8A3
:1009C0000790A64A1378984210D17B7892F801C01C
:1009D00063450BD1BB7892F802C0634506D1FB7822
:1009E00092F803C0634501D184F807909C4B93F8BB
:1009F00000C0604513D197F801C093F801B0DC4501
:100A00000DD197F802C093F802B0DC4507D197F8F2
:100A100003C093F803B0DC4501D184F80790E47972
:100A2000062C49D2DFE804F00619253140440320A2
:100A3000E071A0E78AF8000078788AF80100B878B9
:100A40008AF80200F8788AF8030086A016F0AEF95A
:100A500005F02DFC06F00CFA2EE00870787848704E
:100A6000B8788870F878C87005F021FC06F000FAB4
:100A700022E0107078785070B8789070F878D07064
:100A800005F015FC06F0F4F916E018707878587047
:100A9000B8789870F878D87072A016F087F905F0D9
:100AA00006FC06F0E5F907E005F01EFC06F0E0F9AB
:100AB00005F01AFC06F0DCF96E4CA07801283FF432
:100AC000FFAE76E0002000F047FB042802D16670FC
:100AD000A570E570012807D12178491CC9B22170A1
:100AE000491E032900D32570022807D12178491E09
:100AF000C9B22170491E032900D32570217831B174
:100B0000012918D002292BD0032952D13DE0032816
:100B10004FD1594809F07EFA8AF800808AF801809E
:100B20008AF802808AF8038005F0C1FB40F2DC50AD
:100B300008F00FF93DE003283BD1504809F06AFA6C
:100B4000454880F8008080F8018080F8028080F8B5
:100B5000038005F0ACFB40F2DC5008F0FAF828E026
:100B6000032826D1464809F055FA3C4880F8008011
:100B700080F8018080F8028080F8038005F097FB00
:100B800040F2DC5008F0E5F813E0032811D13D48AD
:100B900009F040FA324880F8008080F8018080F83F
:100BA000028080F8038005F082FB40F2DC5008F000
:100BB000D0F8E07801287FF473AD83E770472DE922
:100BC000F04F8BB00BF01DFF0AA810F0CBF80121FD
:100BD0000AAA08460DF071FA0BF0F4FF2A4D2978A5
:100BE000491C29700BF0F2FF0AAE0024AFF233006B
:100BF0004FF00208CDE90080CDE9024632230522FC
:100C000022A1244811F06EFE0327CDE90647059482
:100C10004FF080094FF00C0A1F484FF0050B0023DE
:100C20003CE0000066696E64636172640D0A000056
:100C30007765697465636172640D0A005A0000206B
:100C4000636172646E756D6265723D25640D0A00A4
:100C500094000020900000208400002088000020E4
:100C60008C00002041646420436172642031204F75
:100C70004B0D0A00000000200070000800740008FE
:100C800000780008007C0008A8020020746D723112
:100C900000000000CC1C002044070020AFF22962B5
:100CA000CDE900B0CDE902A9A4A108960494C43806
:100CB00010F00CFBCDE90647A34805940023AFF6DE
:100CC0002F02CDE900B0CDE902A9A0A108960494B5
:100CD000C43810F0FBFAA0A016F068F8CDE906477A
:100CE0009F4A0594CDE900824FF480600896CDE9D3
:100CF0000304662100230291AFF64322984899A18C
:100D0000C43810F0E3FA9AA016F050F80BF05AFF2E
:100D10002978491EC9B2297061B10BF057FF0AA9A1
:100D2000954811F081FF0AA9002010F0C5FB0BB017
:100D3000BDE8F08F9149098821B10BF047FF0DF014
:100D400056FDECE70BF042FFE9E730B58BB007F05A
:100D5000BBFF4FF4A06009F08FF98948894900680A
:100D6000B0FBF1F08849C0B2496888474FF4E134DC
:100D7000204608F029F8204604F0F6FF204604F04B
:100D800060FF204608F082F880A016F00FF804F00B
:100D9000F8FD7FA016F00AF806F09AF905F0E6FBD8
:100DA000002400940C230E2205214FF4FD600194D1
:100DB00005F07BFB05F060FA0AA80CF0F2FF0BF0DF
:100DC00001FF744D2978491C29700BF0FFFE0320A8
:100DD0000AA9CDE90640089105948021CDE90314C4
:100DE0000C226D4BCDE9013200900023AFF231228D
:100DF00069486AA1C43810F069FA0BF0E3FE29785B
:100E0000491EC9B2297039B10BF0E0FE0AA80DF0F5
:100E100018FA0BB0002030BD5849098821B10BF0F9
:100E2000D5FE0DF0E4FCF1E70BF0D0FEEEE770B577
:100E300088B05D4C40F225552946204609F060FCFB
:100E4000012819D12946204609F056FC204609F010
:100E5000E3FBC0B2554C218909B943280CD1218943
:100E60004A1C2281444A3432505421894FF480660E
:100E70000025B14202D3258108B070BD21893629F1
:100E8000FAD90A28F8D144494848D239A1F10A02CE
:100E9000A1F11403CDE903320E30CDE90510303055
:100EA000A0F13201143ACDE90021431F02903248EB
:100EB0005A1F3F49343016F035F9092836D13B48DE
:100EC000343016F0BDF9E0613848393016F0B8F921
:100ED00020613148F03818F013FE18F0DFFE606230
:100EE00032480C3016F0ACF9606130483E3016F0F4
:100EF000A7F920622848E63818F002FE18F0CEFE66
:100F0000A0622548DC3818F0FBFD18F0C7FEE0624F
:100F10002148D23818F0F4FD18F0C0FE20632348B1
:100F20000E3018F0EDFD18F0E3FFA06112483146D5
:100F3000343016F096FA25819EE700006E66632035
:100F40007461736B00000000CC1A0020727463207F
:100F50007461736B000000005254430D0A000000DE
:100F6000080A00206E6574207461736B0000000035
:100F7000096E657400000000CC1C00206C0200208B
:100F80004400002040420F00280100204B4B4B0042
:100F9000454E4400A8020020800400207374617252
:100FA00074207461736B0000004C0040000000204E
:100FB00028CE01087047FEE7FEE7FEE7FEE7704730
:100FC000704700000CB5002201920092524801685F
:100FD00041F4803101604FF4A063016801F40031F5
:100FE00000910199491C0191009911B90199994207
:100FF000F3D10168890302D50121009100E000923C
:101000000099012930D145490A6842F010020A606E
:101010000A6822F003020A600A6842F002020A60CB
:101020004168416041684160416841F480614160CC
:10103000416821F47C114160416841F4E81141604C
:10104000016841F08071016001688901FCD5416847
:1010500021F003014160416841F0020141604168B3
:10106000C1F381010229FAD10CBDABE710B52A48C2
:10107000016841F0010101604168294A1140416065
:101080000168284A11400160016821F48021016053
:10109000416821F4FE0141604FF41F018160FFF7B8
:1010A000E4FF21494FF00060086010BD10B51A4AF6
:1010B000506800F00C011D4B1D4800290ED004297A
:1010C0000ED008290ED003605168194AC1F30311EC
:1010D000121D515C0268CA40026010BD0360F3E754
:1010E0000360F1E7516801F47011536803F4803331
:1010F000022404EB914133B153689B0307D50D4B98
:1011000059430160E0E70B4B59430160DCE7074BB3
:1011100059430160D8E7000000100240002002405F
:101120000000FFF8FFFFF6FE08ED00E000127A0075
:101130004400002000093D0008B50121402009F0CD
:1011400034FC4E20ADF8000048208DF803006946BD
:101150002F4809F056F808BD70B501252D4C002820
:1011600000D0257020782A4E98B10221304609F02F
:10117000A3F8A8B14021304609F09EF880B10821BB
:10118000304609F099F858B10421304609F094F836
:1011900030B10221304609F08FF8012823D035E024
:1011A0000A2007F0D6FD002020700221304609F009
:1011B00083F880B14021304609F07EF868B10821FB
:1011C000304609F079F850B10421304609F074F83E
:1011D000012806D01AE0012070BD022070BD032056
:1011E00070BD042070BD4021304609F065F801282B
:1011F0000CD10821304609F05FF8012806D10421FE
:10120000304609F059F8012800D12570002070BD42
:101210000018014058000020F74908807047F6493F
:10122000891C0880704708B5F348801C008800902E
:10123000BDF8000008BDF04A1080901C0180704786
:1012400010B5FFF7E9FF052007F064FDBDE8104089
:10125000E9E7EA48E849008908807047E649891CBF
:1012600008807047C0F34511C20AC00200EB41106C
:10127000104480B27047401EC0B2FCD270472DE9C6
:10128000F04102460B46DD4E1F0A3046B1884089C8
:10129000A1F513444FEA1228413C1AD0A1F5A64407
:1012A000103C16D03446A1F5D04CA5792488A41A58
:1012B000641EBCF1040C1ED0A1F5C85CBCF1630C2B
:1012C0002ED0A1F5A04CBCF5A26C62D0012D7DD032
:1012D0007DE0FFF7A1FF4046FFF7A1FFD0B2FFF787
:1012E0009EFFB089FFF798FF3846FFF798FFBDE8EB
:1012F000F041D8B293E7012D00D1A2B2FFF78CFFE5
:10130000100AFFF78CFFD0B2FFF789FFB089FFF713
:1013100083FF3846FFF783FFBDE8F041D8B27EE790
:101320003DB3FFF779FF4046FFF779FFD0B2FFF7F3
:1013300076FF3088401EC0F30F20FFF770FF307833
:10134000401EC0B2FFF76BFFB089FFF765FF38465C
:10135000FFF765FFD8B2FFF762FF7088401EC0F349
:101360000F20FFF75CFFB078BDE8F041401EC0B22F
:1013700055E7A2B2FFF750FF0020FFF750FF002013
:10138000FFF74DFF100AFFF74AFFD0B2FFF747FF04
:10139000DAE7FFF741FF4046FFF741FF7089401C45
:1013A00080B2FFF739FFD0B2FFF739FFB089FFF7FE
:1013B00033FF3846FFF733FFB089401C80B2FFF798
:1013C0002BFFBDE8F041D8B229E7FFE7A2B21146F2
:1013D000FFF731FFB089BDE8F04119462BE72DE951
:1013E000F04300240027DFF81482B8F8002082427E
:1013F00003D9B8F802208A4202D80020BDE8F08361
:10140000FFF73DFFB8F8040049F2413941F6631295
:1014100045F2103545F21056484507D0A0F5D041A9
:10142000043903D0A84201D0904203D12E20FFF707
:10143000F3FE09E0B04204D14FF43850FFF7ECFE60
:1014400002E02220FFF7E8FEB8F80400A0F51341FF
:10145000203902D10220FFF70EFFFFF7E4FEB8F8B3
:1014600004109142CAD00220FFF705FFFFF7DBFE10
:101470000246B8F80400484503D0A84201D0B04263
:101480000AD10220FFF7F7FEFFF7CDFE0746D0B2E4
:101490004FF6FF7101EA0024B8F80410A1F51340DB
:1014A00025381AD0A1F58A40353816D0001D14D041
:1014B000A1F53540053810D0B0F580500DD0494524
:1014C00003D0A94201D0B14209D1D00AC002A10A79
:1014D00040EA411040EAD72090E710468EE7BDE889
:1014E000F0431046BEE645488088A0F513414139D7
:1014F00013D0A0F5D04104390FD0A0F5A641103982
:101500000BD0A0F5C851633907D0A0F5AA41103916
:1015100005D040F2731107208DE629207CE64FF4B8
:10152000245079E635488088A0F51341413912D01E
:10153000A0F5D04104390ED0A0F5A64110390AD04B
:10154000A0F5C851633906D0A0F5AA41103904D0DE
:10155000002107206FE628205EE64FF420505BE66E
:10156000F0B50023254C46F604072146A279898868
:1015700041F66315012A03D1B94201D0A94202D133
:10158000C2B9A94216D1082814D2DFE800F0040637
:10159000080A0C0E101206200CE007200AE00420B6
:1015A00008E0052006E0012004E0002002E003201E
:1015B00000E00220A1F5134C45F2103245F210561E
:1015C000BCF1410C07D0B94205D0914203D0B142E1
:1015D00001D0A9427DD1082817D2DFE800F0160417
:1015E00006080A11131580230FE040230DE0C023E5
:1015F0000BE0202309E00000FE07006C0021002022
:10160000602302E0A02300E0E023B14202D14FF4C6
:10161000585000E03620914205D0B14203D0A94293
:1016200001D043F00803B94201D143F00203194647
:10163000FFF701FEA288AA420ED0980606D52088A0
:101640006188884208D22180608005E02088618816
:10165000884201D921806080B24248D16089FFF779
:10166000DBFD0020FFF7DBFD6089401C80B2FFF747
:10167000D3FD0020FFF7D3FD6089801C80B2FFF707
:10168000CBFD2088401EC0F30F20FFF7C8FD608906
:10169000C01C80B2FFF7C0FD2078401EC0B2FFF72B
:1016A000BEFDA089FFF7B8FD0020FFF7B8FDA089B7
:1016B000401C80B2FFF7B0FD0020FFF7B0FDA0890D
:1016C000801C80B2FFF7A8FD6088401EC0F30F2089
:1016D00000E035E0FFF7A3FDA089C01C80B2FFF752
:1016E0009BFDA078BDE8F040401EC0B297E5608940
:1016F000FFF792FD0020FFF792FD0020FFF78FFD1E
:101700002088401EC0F30F20FFF789FD2078401E7F
:10171000C0B2FFF784FDA089FFF77EFD0020FFF730
:101720007EFD0020FFF77BFD6088401EC0F30F2088
:10173000FFF775FDA078BDE8F040401EC0B26EE531
:10174000082812D2DFE800F0040608110A0C0E1077
:1017500030230AE0102308E0202306E0382304E0C9
:10176000282302E0182300E00823032043F48051DB
:10177000BDE8F0405FE500B5FFF781FDFFF769FDCB
:10178000FE48FF490088088000BD2DE9F04103466E
:101790000C469046FB4F220A3846B9881D0A4089FC
:1017A000A1F51346413E18D0A1F5A646103E14D02F
:1017B000B6F5007623D03D46A1F5C85CAE792D88FC
:1017C000ED1A6D1EBCF1630C35D0A1F5D04CBCF107
:1017D000040C51D0012E64D064E0FFF71DFD2846B3
:1017E000FFF71DFDD8B2FFF71AFDB889FFF714FD0A
:1017F0001046FFF714FDE0B2FFF711FD59E0FFF7C7
:101800000BFD2846FFF70BFD7889401C80B2FFF7DF
:1018100003FDD8B2FFF703FDB889FFF7FDFC1046C2
:10182000FFF7FDFCB889401C80B2FFF7F5FCE0B281
:10183000FFF7F5FC3DE006B9ABB2FFF7EDFC1D0A82
:101840002846FFF7ECFCD8B2FFF7E9FC2846FFF783
:10185000E6FCD8B2FFF7E3FCB889FFF7DDFC1046E1
:10186000FFF7DDFCE0B2FFF7DAFC1046FFF7D7FC2C
:10187000E0B2FFF7D4FC1CE0012E00D1ABB2FFF7C1
:10188000CBFC180AFFF7CBFCD8B2FFF7C8FCB8892D
:10189000FFF7C2FC1046FFF7C2FCE0B2FFF7BFFC47
:1018A00007E0ABB21946FFF7C6FCB8892146FFF73F
:1018B000C2FCB3493889891E0880881CA0F80080C2
:1018C000BDE8F08110B50246BE20FFF7A5FC05205B
:1018D000FFF7A5FC104618F068FB4FF06632AA4BE4
:1018E00018F0B2FB18F034FB80B2FFF798FC01202F
:1018F000FFF795FCFF20FFF792FC0020FFF78FFC1D
:10190000BDE8104000208AE42DE9F04F9D492A23CC
:101910002B24898845F2105C4FF430584FF4285935
:101920004FF448754FF0F00A49F2413B4FF4A0776D
:1019300045F210364FF4F072002810D091484FF065
:10194000010E80F806E00780A0F802A0594501D0FA
:10195000B14240D12C250581438184815CE08948D6
:101960004FF0000E80F806E0A0F800A0478059452F
:1019700006D0A1F5D04ABAF1040A01D0B1420CD187
:101980002C25058143818481A1F5D043043B01D0FE
:10199000B14249D10780428046E0614509D1A0F8B3
:1019A0000880A0F80A904FF42C5181810280458074
:1019B0003AE0A1F5C856633E06D0222101812021DC
:1019C0004181212181812FE02C210181448183816A
:1019D0000280458028E0A1F5D04ABAF1040A0BD074
:1019E00061450ED1A0F80880A0F80A904FF42C535E
:1019F0008381058042800FE02C250581448183810D
:101A00000AE0A1F5C85CBCF1630C11D0222303816C
:101A10002123438120238381A1F5D043043B01D0BE
:101A2000B14201D102804780BDE8F04F002097E528
:101A30004FF02C0CA0F808C04381848105804280BF
:101A4000EAE72DE9FC4F04460D46A018401E86B279
:101A500005EB030CACF1010C1FFA8CF3DFF824E169
:101A6000A7187F1EBEF80400C7F307270197270AAF
:101A700000977746A0F513417F89CCF307284FEAFA
:101A80001529413910D0A0F5A64110390CD0A0F588
:101A9000D041043908D09EF806A041F6631BBAF184
:101AA000010F22D1584520D172463846FFF7B4FBCA
:101AB0000098FFF7B4FBE0B2FFF7B1FB0198FFF726
:101AC000AEFBF0B2FFF7ABFB9089FFF7A5FB4846F2
:101AD000FFF7A5FBE8B2FFF7A2FB4046FFF79FFB2D
:101AE000D8B2BDE8FC4FFFF79ABB26495845098894
:101AF00028D1881A001B764683B21FFA8CF4384628
:101B0000FFF78AFB180AFFF78AFBD8B2FFF787FBBB
:101B10001A44521EC2F30F20FFF781FBD0B2FFF729
:101B20007EFBB089FFF778FB4846FFF778FBE8B209
:101B3000FFF775FB200AFFF772FBE0B2BDE8FC4F30
:101B4000FFF76DBBA0F5A04C7246BCF5A26C2BD084
:101B5000BAF1010F66D0204637462E4650224FF08C
:101B600051084FF052094FF0530A01461046FFF753
:101B700062FB39464046FFF75EFB07E05A00002053
:101B80000008006C0021002066660440314648468B
:101B9000FFF751FB19465046FFF74DFB29462046FB
:101BA000BDE8FC4FFFF76BBB3846FFF735FB0098ED
:101BB000FFF735FB5089401C80B2FFF72DFBE0B2E8
:101BC000FFF72DFB5089801C80B2FFF725FB0198A1
:101BD000FFF725FB5089C01C80B2FFF71DFBF0B258
:101BE000FFF71DFB9089FFF717FB4846FFF717FB30
:101BF0009089401C80B2FFF70FFBE8B2FFF70FFBA4
:101C00009089801C80B2FFF707FB4046FFF707FB77
:101C10009089C01C80B2FFF7FFFAD8B2BDE8FC4F34
:101C2000FFF7FDBA28461F468A1B521E96B2091BB3
:101C3000491E8BB292E72DE9F04306460024FE4F81
:101C400038887D884543B888A0F5D041043902D151
:101C5000B879012807D000210846FFF710FBFFF7ED
:101C6000F8FAF64916E00020B8714FF02A09A7F8F3
:101C70000A904FF02B08A7F80C8000210846FFF7C8
:101C8000FEFA0120B871A7F80A80A7F80C90E6E7E1
:101C90000E80641CAC42FBD31EE42DE9F04F9FB0D4
:101CA00001210D02284608F075FE01214FF4B470A1
:101CB00008F07BFE4FF00108ADF8788010278DF812
:101CC0007B7003248DF87A401EA9DD4808F099FA4C
:101CD0004CF23370ADF8780018268DF87B608DF8E3
:101CE0007A401EA9D74808F08CFA4FF68070ADF8FC
:101CF00078008DF87B608DF87A401EA9D24808F0F4
:101D000080FA41F20100ADF878008DF87B608DF823
:101D10007A401EA9CD4808F074FACDF82080002042
:101D200009900F210A910B900C900D900E9001904C
:101D300002900394049005900690079006210F915D
:101D40001090119012971390159014901690179070
:101D500029011891199089001A911B9008A81C90CC
:101D600001A81D900FA808F0AEFE0121062008F082
:101D7000DEFF322006F0EDFF0020FFF761FAAE4CE7
:101D8000A08049F2413946F6040A45F2103B45F27B
:101D900010564FF6FF77FF2804D3B84202D0B0F5B3
:101DA000134F78D1D320FFF737FAFFF73CFAA08022
:101DB000FFF739FAA080FFF736FA07EA0020A08083
:101DC000FFF731FAA1880843A080484563D0BF20BF
:101DD000FFF722FAFFF727FAA080FFF724FAA08086
:101DE000FFF721FAA080FFF71EFA07EA0020A08083
:101DF000FFF719FAA1880843A08050454BD0D420A2
:101E0000FFF70AFAFFF70FFAA080FFF70CFAA0809D
:101E1000FFF709FA07EA0020A080FFF704FAA1887B
:101E20000843A080584536D04FF45A40FFF7F4F9E4
:101E3000FFF7F9F9A0804FF45B40FFF7EDF9FFF7EA
:101E4000F2F907EA0020A0804FF45C40FFF7E4F9C4
:101E5000FFF7E9F9A1880843A080B0F5004F00D151
:101E6000A680A088B04216D0A120FFF7D5F9FFF7D1
:101E7000DAF9A080FFF7D7F907EA0020A080FFF782
:101E8000D2F9A1880843A080A0F5AE41613902D102
:101E900041F66310A080A1886DA014F087FFA08890
:101EA00048457CD1CF20FFF7B7F90020FFF7B7F9FD
:101EB000C120FFF7B4F93020FFF7B1F9ED20FFF7AB
:101EC000ABF96420FFF7ABF90320FFF7A8F9122064
:101ED000FFF7A5F98120FFF7A2F9E820FFF79CF9A9
:101EE0008520FFF79CF91020FFF799F97A20FFF77A
:101EF00096F9CB20FFF790F93920FFF790F92C20C5
:101F0000FFF78DF90020FFF78AF93420FFF787F9F2
:101F10000220FFF784F9F720FFF77EF92020FFF772
:101F20007EF9EA20FFF778F90020FFF778F9002022
:101F3000FFF775F9C020FFF76FF91B20FFF76FF966
:101F4000C120FFF769F90120FFF769F9C520FFF704
:101F500063F93020FFF763F93020FFF760F9C720FD
:101F6000FFF75AF9B720FFF75AF93620FFF754F96F
:101F70004820FFF754F93A20FFF74EF95520FFF7B4
:101F80004EF9B120FFF748F90020FFF748F91A2071
:101F9000FFF745F9B620FFF73FF90A2000E0AEE071
:101FA000FFF73DF9A220FFF73AF9F220FFF734F9E5
:101FB0000020FFF734F92620FFF72EF90120FFF764
:101FC0002EF9E020FFF728F90F20FFF728F92A2043
:101FD000FFF725F92820FFF722F90820FFF71FF95E
:101FE0000E20FFF71CF90820FFF719F95420FFF71E
:101FF00016F9A920FFF713F94320FFF710F90A207B
:10200000FFF70DF90F20FFF70AF90020FFF707F996
:102010000020FFF704F90020FFF701F90020FFF787
:10202000FEF8E120FFF7F8F80020FFF7F8F8152098
:10203000FFF7F5F8172013E0002100200008006CDE
:10204000000C014000140140001801400020014034
:10205000204C43442049443A25780D0A00000000F2
:10206000FFF7DDF80720FFF7DAF81120FFF7D7F8C0
:102070000620FFF7D4F82B20FFF7D1F85620FFF702
:10208000CEF83C20FFF7CBF80520FFF7C8F810206A
:10209000FFF7C5F80F20FFF7C2F83F20FFF7BFF8A2
:1020A0003F20FFF7BCF80F20FFF7B9F82B20FFF710
:1020B000B3F80020FFF7B3F80020FFF7B0F80120D5
:1020C000FFF7ADF83F20FFF7AAF82A20FFF7A4F8A2
:1020D0000020FFF7A4F80020FFF7A1F80020FFF789
:1020E0009EF8EF20FFF79BF81120FFF795F8782076
:1020F00006F02FFE2920FFF78FF803F0B3B8504504
:102100007ED11120FFF788F8142006F022FED0209F
:10211000FFF782F80720FFF782F84220FFF77FF8E9
:102120001D20FFF77CF8D120FFF776F80020FFF79D
:1021300076F81A20FFF773F80920FFF770F8D2201D
:10214000FFF76AF80120FFF76AF82220FFF767F827
:10215000C020FFF761F81020FFF761F83B20FFF780
:102160005EF80020FFF75BF80220FFF758F8112017
:10217000FFF755F8C520FFF74FF80320FFF74FF89A
:10218000C820FFF749F80020FFF749F82520FFF79E
:1021900046F82120FFF743F80520FFF740F800201C
:1021A000FFF73DF80A20FFF73AF86520FFF737F808
:1021B0002520FFF734F87720FFF731F85020FFF79C
:1021C0002EF80F20FFF72BF80020FFF728F8F82053
:1021D000FFF722F80120FFF722F8FE20FFF71CF896
:1021E0000020FFF71CF80220FFF719F82020FFF766
:1021F00013F83620FFF710F80820FFF710F800E07A
:102200002AE03A20FFF708F85520FFF708F82B20BE
:10221000FFF702F80020FFF702F80020FEF7FFFFAB
:102220000120FEF7FCFF3F20FEF7F9FF2A20FEF712
:10223000F3FF0020FEF7F3FF0020FEF7F0FF012080
:10224000FEF7EDFFDF20FEF7EAFF782006F081FDC4
:102250002920FEF7E1FF50E758457CD1ED20FEF73D
:10226000DBFF0120FEF7DBFFFE20FEF7D8FFEE20AC
:10227000FEF7D2FFDE20FEF7D2FF2120FEF7CFFFD0
:10228000F120FEF7C9FF0120FEF7C9FFDF20FEF7AE
:10229000C3FF1020FEF7C3FFC420FEF7BDFF8F2051
:1022A000FEF7BDFFC620FEF7B7FF0020FEF7B7FF21
:1022B000E220FEF7B4FFE220FEF7B1FFE220FEF7D6
:1022C000AEFFBF20FEF7A8FFAA20FEF7A8FFB020B0
:1022D000FEF7A2FF0D20FEF7A2FF0020FEF79FFFF2
:1022E0000D20FEF79CFF0020FEF799FF1120FEF75E
:1022F00096FF0020FEF793FF1920FEF790FF0020C5
:10230000FEF78DFF2120FEF78AFF0020FEF787FFF2
:102310002D20FEF784FF0020FEF781FF3D20FEF711
:102320007EFF0020FEF77BFF5D20FEF778FF002098
:10233000FEF775FF5D20FEF772FF0020FEF76FFFCE
:10234000B120FEF769FF8020FEF769FF0020FEF74D
:1023500066FF8B2000E0FCE3FEF761FF0020FEF744
:102360005EFF9620FEF75BFF0020FEF758FFB220CD
:10237000FEF752FF0020FEF752FF0020FEF74FFF4E
:102380000220FEF74CFF0020FEF749FF0320FEF776
:1023900046FF0020FEF743FFB320FEF73DFF00207D
:1023A000FEF73DFF0020FEF73AFF0020FEF737FF63
:1023B0000020FEF734FF0020FEF731FF0020FEF77B
:1023C0002EFF0020FEF72BFF0020FEF728FF002045
:1023D000FEF725FF0020FEF722FF0020FEF71FFF7B
:1023E0000020FEF71CFF0020FEF719FF0020FEF77B
:1023F00016FF0020FEF713FF0020FEF710FF00205D
:10240000FEF70DFF0020FEF70AFF0020FEF707FF92
:102410000020FEF704FF0020FEF701FF0020FEF77A
:10242000FEFE0020FEF7FBFE0020FEF7F8FEB420C3
:10243000FEF7F2FE8B20FEF7F2FE0020FEF7EFFE25
:102440009620FEF7ECFE0020FEF7E9FEA120FEF745
:10245000E6FE0020FEF7E3FEB520FEF7DDFE0220DB
:10246000FEF7DDFE0020FEF7DAFE0320FEF7D7FEC2
:102470000020FEF7D4FE0420FEF7D1FE0020FEF778
:10248000CEFEB620FEF7C8FE0020FEF7C8FE0020F4
:10249000FEF7C5FEB720FEF7BFFE0020FEF7BFFE29
:1024A0000020FEF7BCFE3F20FEF7B9FE0020FEF73D
:1024B000B6FE5E20FEF7B3FE0020FEF7B0FE6420FD
:1024C000FEF7ADFE0020FEF7AAFE8C20FEF7A7FE69
:1024D0000020FEF7A4FEAC20FEF7A1FE0020FEF7D0
:1024E0009EFEDC20FEF79BFE0020FEF798FE70208B
:1024F000FEF795FE0020FEF792FE9020FEF78FFE7D
:102500000020FEF78CFEEB20FEF789FE0020FEF790
:1025100086FEDC20FEF783FE0020FEF780FEB8205A
:10252000FEF77AFE0020FEF77AFE0020FEF777FE27
:102530000020FEF774FE0020FEF771FE0020FEF77B
:102540006EFE0020FEF76BFE0020FEF768FE002006
:10255000FEF765FEBA20FEF75FFE2420FEF75FFE61
:102560000020FEF75CFE0020FEF759FE0020FEF77B
:1025700056FEC120FEF750FE2020FEF750FE002040
:10258000FEF74DFE5420FEF74AFE0020FEF747FE00
:10259000FF20FEF744FE0020FEF741FEC220FEF7BA
:1025A0003BFE0A20FEF73BFE0020FEF738FE04202B
:1025B000FEF735FE0020FEF732FEC320FEF72CFEAC
:1025C0003C20FEF72CFE0020FEF729FE3A20FEF705
:1025D00026FE0020FEF723FE3920FEF720FE002015
:1025E000FEF71DFE3720FEF71AFE0020FEF717FE4D
:1025F0003C20FEF714FE0020FEF711FE3620FEF709
:102600000EFE0020FEF70BFE3220FEF708FE002033
:10261000FEF705FE2F20FEF702FE0020FEF7FFFD6D
:102620002C20FEF7FCFD0020FEF7F9FD2920FEF727
:10263000F6FD0020FEF7F3FD2620FEF7F0FD00205A
:10264000FEF7EDFD2420FEF7EAFD0020FEF7E7FD92
:102650002420FEF7E4FD0020FEF7E1FD2320FEF735
:10266000DEFD0020FEF7DBFD3C20FEF7D8FD00205C
:10267000FEF7D5FD3620FEF7D2FD0020FEF7CFFD98
:102680003220FEF7CCFD0020FEF7C9FD2F20FEF71B
:10269000C6FD0020FEF7C3FD2C20FEF7C0FD002084
:1026A000FEF7BDFD2920FEF7BAFD0020FEF7B7FDBD
:1026B0002620FEF7B4FD0020FEF7B1FD2420FEF732
:1026C000AEFD0020FEF7ABFD2420FEF7A8FD0020A4
:1026D000FEF7A5FD2320FEF7A2FD0020FEF79FFDDB
:1026E000C420FEF799FD6220FEF799FD0020FEF759
:1026F00096FD0520FEF793FD0020FEF790FD842057
:10270000FEF78DFD0020FEF78AFDF020FEF787FD25
:102710000020FEF784FD1820FEF781FD0020FEF763
:102720007EFDA420FEF77BFD0020FEF778FD18203B
:10273000FEF775FD0020FEF772FD5020FEF76FFDDD
:102740000020FEF76CFD0C20FEF769FD0020FEF76F
:1027500066FD1720FEF763FD0020FEF760FD952063
:10276000FEF75DFD0020FEF75AFDF320FEF757FD52
:102770000020FEF754FDE620FEF751FD0020FEF795
:102780004EFDC520FEF748FD3220FEF748FD002033
:10279000FEF745FD4420FEF742FD0020FEF73FFD19
:1027A0006520FEF73CFD0020FEF739FD7620FEF7A0
:1027B00036FD0020FEF733FD8820FEF730FD0020B7
:1027C000FEF72DFDC620FEF727FD2020FEF727FD92
:1027D0000020FEF724FD1720FEF721FD0020FEF764
:1027E0001EFD0120FEF71BFD0020FEF718FDC7208F
:1027F000FEF712FD0020FEF712FD0020FEF70FFD90
:102800000020FEF70CFD0020FEF709FDC820FEF7B2
:1028100003FD0020FEF703FD0020FEF700FD002071
:10282000FEF7FDFC0020FEF7FAFCC920FEF7F4FCE1
:102830000020FEF7F4FC0020FEF7F1FC0020FEF77C
:10284000EEFC0020FEF7EBFC0020FEF7E8FC002089
:10285000FEF7E5FC0020FEF7E2FC0020FEF7DFFCBF
:102860000020FEF7DCFC0020FEF7D9FC0020FEF77C
:10287000D6FC0020FEF7D3FC0020FEF7D0FC0020A1
:10288000FEF7CDFC0020FEF7CAFC0020FEF7C7FCD7
:10289000E020FEF7C1FC1620FEF7C1FC0020FEF789
:1028A000BEFC1C20FEF7BBFC0020FEF7B8FC21207C
:1028B000FEF7B5FC0020FEF7B2FC3620FEF7AFFCB9
:1028C0000020FEF7ACFC4620FEF7A9FC0020FEF736
:1028D000A6FC5220FEF7A3FC0020FEF7A0FC64201B
:1028E000FEF79DFC0020FEF79AFC7A20FEF797FC8D
:1028F0000020FEF794FC8B20FEF791FC0020FEF7F1
:102900008EFC9920FEF78BFC0020FEF788FCA820A7
:10291000FEF785FC0020FEF782FCB920FEF77FFC65
:102920000020FEF77CFCC420FEF779FC0020FEF7B7
:1029300076FCCA20FEF773FC0020FEF770FCD22064
:10294000FEF76DFC0020FEF76AFCD920FEF767FC5D
:102950000020FEF764FCE020FEF761FC0020FEF79B
:102960005EFCF320FEF75BFC0020FEF758FCE12044
:10297000FEF752FC1620FEF752FC0020FEF74FFC3B
:102980001C20FEF74CFC0020FEF749FC2220FEF73D
:1029900046FC0020FEF743FC3620FEF740FC0020FA
:1029A000FEF73DFC4520FEF73AFC0020FEF737FC21
:1029B0005220FEF734FC0020FEF731FC6420FEF7C5
:1029C0002EFC0020FEF72BFC7A20FEF728FC0020CE
:1029D000FEF725FC8B20FEF722FC0020FEF71FFCF3
:1029E0009920FEF71CFC0020FEF719FCA820FEF73A
:1029F00016FC0020FEF713FCB920FEF710FC0020A7
:102A0000FEF70DFCC420FEF70AFC0020FEF707FCD1
:102A1000CA20FEF704FC0020FEF701FCD220FEF7DE
:102A2000FEFB0020FEF7FBFBD820FEF7F8FB0020A2
:102A3000FEF7F5FBE020FEF7F2FB0020FEF7EFFBD0
:102A4000F320FEF7ECFB0020FEF7E9FBE220FEF7A7
:102A5000E3FB0520FEF7E3FB0020FEF7E0FB0B2085
:102A6000FEF7DDFB0020FEF7DAFB1B20FEF7D7FBAD
:102A70000020FEF7D4FB3420FEF7D1FB0020FEF748
:102A8000CEFB4420FEF7CBFB0020FEF7C8FB4F2017
:102A9000FEF7C5FB0020FEF7C2FB6120FEF7BFFB7F
:102AA0000020FEF7BCFB7920FEF7B9FB0020FEF703
:102AB000B6FB8820FEF7B3FB0020FEF7B0FB9720A3
:102AC000FEF7ADFB0020FEF7AAFBA620FEF7A7FB52
:102AD0000020FEF7A4FBB720FEF7A1FB0020FEF7C5
:102AE0009EFBC220FEF79BFB0020FEF798FBC72051
:102AF000FEF795FB0020FEF792FBD120FEF78FFB3F
:102B00000020FEF78CFBD620FEF789FB0020FEF7A5
:102B100086FBDD20FEF783FB0020FEF780FBF32021
:102B2000FEF77DFB0020FEF77AFBE320FEF774FB47
:102B30000520FEF774FB0020FEF771FB0A20FEF76C
:102B40006EFB0020FEF76BFB1C20FEF768FB0020ED
:102B500000E000E3FEF763FB3320FEF760FB00209C
:102B6000FEF75DFB4420FEF75AFB0020FEF757FB03
:102B70005020FEF754FB0020FEF751FB6220FEF7C9
:102B80004EFB0020FEF74BFB7820FEF748FB0020B1
:102B9000FEF745FB8820FEF742FB0020FEF73FFBD7
:102BA0009720FEF73CFB0020FEF739FBA620FEF73E
:102BB00036FB0020FEF733FBB720FEF730FB00208A
:102BC000FEF72DFBC220FEF72AFB0020FEF727FBB5
:102BD000C720FEF724FB0020FEF721FBD120FEF7E3
:102BE0001EFB0020FEF71BFBD520FEF718FB002084
:102BF000FEF715FBDD20FEF712FB0020FEF70FFBB2
:102C0000F320FEF70CFB0020FEF709FBE420FEF7A3
:102C100003FB0120FEF703FB0020FEF700FB012071
:102C2000FEF7FDFA0020FEF7FAFA0220FEF7F7FAA7
:102C30000020FEF7F4FA2A20FEF7F1FA0020FEF752
:102C4000EEFA3C20FEF7EBFA0020FEF7E8FA4B2004
:102C5000FEF7E5FA0020FEF7E2FA5D20FEF7DFFA64
:102C60000020FEF7DCFA7420FEF7D9FA0020FEF708
:102C7000D6FA8420FEF7D3FA0020FEF7D0FA93208C
:102C8000FEF7CDFA0020FEF7CAFAA220FEF7C7FA37
:102C90000020FEF7C4FAB320FEF7C1FA0020FEF7C9
:102CA000BEFABE20FEF7BBFA0020FEF7B8FAC42039
:102CB000FEF7B5FA0020FEF7B2FACD20FEF7AFFA24
:102CC0000020FEF7ACFAD320FEF7A9FA0020FEF7A9
:102CD000A6FADD20FEF7A3FA0020FEF7A0FAF32003
:102CE000FEF79DFA0020FEF79AFAE520FEF794FA27
:102CF0000020FEF794FA0020FEF791FA0020FEF77C
:102D00008EFA0020FEF78BFA0220FEF788FA0020E8
:102D1000FEF785FA2920FEF782FA0020FEF77FFAF7
:102D20003C20FEF77CFA0020FEF779FA4B20FEF7F4
:102D300076FA0020FEF773FA5D20FEF770FA0020A5
:102D4000FEF76DFA7420FEF76AFA0020FEF767FAC4
:102D50008420FEF764FA0020FEF761FA9320FEF764
:102D60005EFA0020FEF75BFAA220FEF758FA002078
:102D7000FEF755FAB320FEF752FA0020FEF74FFA9D
:102D8000BE20FEF74CFA0020FEF749FAC420FEF7F9
:102D900046FA0020FEF743FACD20FEF740FA002065
:102DA000FEF73DFAD320FEF73AFA0020FEF737FA95
:102DB000DC20FEF734FA0020FEF731FAF320FEF7AC
:102DC0002EFA0020FEF72BFAE620FEF725FA112056
:102DD000FEF725FA0020FEF722FA3420FEF71FFA4C
:102DE0000020FEF71CFA5620FEF719FA0020FEF725
:102DF00016FA7620FEF713FA0020FEF710FA772075
:102E0000FEF70DFA0020FEF70AFA6620FEF707FA31
:102E10000020FEF704FA8820FEF701FA0020FEF7F2
:102E2000FEF99920FEF7FBF90020FEF7F8F9BB2028
:102E3000FEF7F5F90020FEF7F2F99920FEF7EFF919
:102E40000020FEF7ECF96620FEF7E9F90020FEF716
:102E5000E6F95520FEF7E3F90020FEF7E0F95520EA
:102E6000FEF7DDF90020FEF7DAF94520FEF7D7F985
:102E70000020FEF7D4F94320FEF7D1F90020FEF739
:102E8000CEF94420FEF7CBF90020FEF7C8F9E72081
:102E9000FEF7C2F93220FEF7C2F90020FEF7BFF9B3
:102EA0005520FEF7BCF90020FEF7B9F97620FEF7B1
:102EB000B6F90020FEF7B3F96620FEF7B0F900205E
:102EC000FEF7ADF96720FEF7AAF90020FEF7A7F993
:102ED0006720FEF7A4F90020FEF7A1F98720FEF78E
:102EE0009EF90020FEF79BF99920FEF798F9002043
:102EF000FEF795F9BB20FEF792F90020FEF78FF957
:102F00009920FEF78CF90020FEF789F97720FEF76B
:102F100086F90020FEF783F94420FEF780F90020AF
:102F2000FEF77DF95620FEF77AF90020FEF777F9D3
:102F30002320FEF774F90020FEF771F93320FEF725
:102F40006EF90020FEF76BF94520FEF768F90020C6
:102F5000FEF765F9E820FEF75FF90020FEF75FF95C
:102F60000020FEF75CF99920FEF759F90020FEF7E2
:102F700056F98720FEF753F90020FEF750F9882014
:102F8000FEF74DF90020FEF74AF97720FEF747F9E2
:102F90000020FEF744F96620FEF741F90020FEF715
:102FA0003EF98820FEF73BF90020FEF738F9AA2009
:102FB000FEF735F90020FEF732F9BB20FEF72FF9B6
:102FC0000020FEF72CF99920FEF729F90020FEF7E2
:102FD00026F96620FEF723F90020FEF720F9552098
:102FE000FEF71DF90020FEF71AF95520FEF717F934
:102FF0000020FEF714F94420FEF711F90020FEF737
:103000000EF94420FEF70BF90020FEF708F95520D1
:10301000FEF705F90020FEF702F9E920FEF7FCF8BB
:10302000AA20FEF7FCF80020FEF7F9F80020FEF7D2
:10303000F6F80020FEF7F3F80020FEF7EDF8AA20DE
:10304000FEF7EDF8CF20FEF7E7F80020FEF7E7F8EF
:103050000020FEF7E4F80020FEF7E1F80020FEF77C
:10306000DEF80020FEF7DBF80020FEF7D8F800209D
:10307000FEF7D5F80020FEF7D2F80020FEF7CFF8D3
:103080000020FEF7CCF80020FEF7C9F80020FEF77C
:10309000C6F80020FEF7C3F80020FEF7C0F80020B5
:1030A000FEF7BDF80020FEF7BAF80020FEF7B7F8EB
:1030B000F020FEF7B1F80020FEF7B1F85020FEF73F
:1030C000AEF80020FEF7ABF80020FEF7A8F80020CD
:1030D000FEF7A5F8F320FEF79FF80020FEF79FF813
:1030E000F920FEF799F80620FEF799F81020FEF770
:1030F00096F82920FEF793F80020FEF790F83A2082
:10310000FEF78AF85520FEF78AF81120FEF784F8BA
:10311000642005F01EFE2920FEF77EF83520FEF71C
:103120007BF80020FEF77BF85120FEF775F8FF20B2
:10313000FEF775F85320FEF76FF82C20FEF76FF8B6
:103140005520FEF769F88220FEF769F82C20FEF77B
:1031500063F802F087B8B0427ED14FF47043552136
:103160001846FEF768F84FF20104AA212046FEF740
:1031700062F8651C52212846FEF75DF8A61C08215E
:103180003046FEF758F84FF2040901214846FEF791
:1031900052F80D214FF43040FEF74DF80D214BF25F
:1031A0000100FEF748F80D214BF20200FEF743F84C
:1031B0004FF4364A34215046FEF73DF834214BF2A5
:1031C0000160FEF738F834214BF20260FEF733F865
:1031D0004FF4314B0D215846FEF72DF80D214BF2DF
:1031E0000110FEF728F80D214BF20210FEF723F82C
:1031F00034214FF43740FEF71EF834214BF20170B2
:10320000FEF719F834214BF20270FEF714F8002192
:103210004FF43240FEF70FF800214BF20120FEF789
:103220000AF800214BF20220FEF705F824214FF4A2
:103230003840FEF700F824214BF60100FDF7FBFFB4
:1032400024214BF60200FDF7F6FF01214FF43F4029
:10325000FDF7F1FF0F2100E0FEE34FF43340FDF7EF
:10326000EAFF0F214BF20130FDF7E5FF0F214BF292
:103270000230FDF7E0FF34214FF43940FDF7DBFF6A
:1032800034214BF60110FDF7D6FF34214BF6021026
:10329000FDF7D1FF08214FF43540FDF7CCFF0821A1
:1032A0004BF20150FDF7C7FF08214BF20250FDF72A
:1032B000C2FF03214FF44240FDF7BDFF24214FF42C
:1032C0003A40FDF7B8FF24214BF60120FDF7B3FF8C
:1032D00024214BF60220FDF7AEFF00214FF43C40C5
:1032E000FDF7A9FF78214BF60140FDF7A4FF00216F
:1032F0004BF60240FDF79FFF00214FF43D40FDF7E4
:103300009AFF78214BF60150FDF795FF00214BF60F
:103310000250FDF790FF00214FF43E40FDF78BFF78
:1033200064214BF60160FDF786FF00214FF4514008
:10333000FDF781FF33214DF20110FDF77CFF0021E5
:103340004DF20210FDF777FF34214DF20310FDF727
:1033500072FF00214DF20410FDF76DFF3A214DF28E
:103360000510FDF768FF00214DF20610FDF763FF21
:103370004A214DF20710FDF75EFF00214DF20810C3
:10338000FDF759FF5C214DF20910FDF754FF0021B4
:103390004DF20A10FDF74FFF81214DF20B10FDF7A2
:1033A0004AFF00214DF20C10FDF745FFA6214DF21A
:1033B0000D10FDF740FF00214DF20E10FDF73BFF11
:1033C000E5214DF20F10FDF736FF01214DF21010EF
:1033D000FDF731FF13214DF21110FDF72CFF0121F4
:1033E0004DF21210FDF727FF54214DF21310FDF797
:1033F00022FF01214DF21410FDF71DFF82214DF235
:103400001510FDF718FF01214DF21610FDF713FFFF
:10341000CA214DF21710FDF70EFF02214DF21810D0
:10342000FDF709FF00214DF21910FDF704FF0221FD
:103430004DF21A10FDF7FFFE01214DF21B10FDF7B2
:10344000FAFE02214DF21C10FDF7F5FE34214DF27B
:103450001D10FDF7F0FE02214DF21E10FDF7EBFEF0
:1034600067214DF21F10FDF7E6FE02214DF22010FC
:10347000FDF7E1FE84214DF22110FDF7DCFE022173
:103480004DF22210FDF7D7FEA4214DF22310FDF7D7
:10349000D2FE02214DF22410FDF7CDFEB7214DF2F0
:1034A0002510FDF7C8FE02214DF22610FDF7C3FEE0
:1034B000CF214DF22710FDF7BEFE02214DF228105C
:1034C000FDF7B9FEDE214DF22910FDF7B4FE022111
:1034D0004DF22A10FDF7AFFEF2214DF22B10FDF751
:1034E000AAFE02214DF22C10FDF7A5FEFE214DF2A1
:1034F0002D10FDF7A0FE03214DF22E10FDF79BFECF
:1035000010214DF22F10FDF796FE03214DF23010E1
:10351000FDF791FE33214DF23110FDF78CFE0321B2
:103520004DF23210FDF787FE6D214DF23310FDF79D
:1035300082FE00214FF45240FDF77DFE33214DF213
:103540000120FDF778FE00214DF20220FDF773FE09
:1035500034214DF20320FDF76EFE00214DF20420D0
:10356000FDF769FE3A214DF20520FDF764FE0021CA
:103570004DF20620FDF75FFE4A214DF20720FDF7D0
:103580005AFE00214DF20820FDF755FE5C214DF258
:103590000920FDF750FE00214DF20A20FDF74BFEF9
:1035A00081214DF20B20FDF746FE00214DF20C204B
:1035B000FDF741FEA6214DF20D20FDF73CFE002156
:1035C0004DF20E20FDF737FEE5214DF20F20FDF7FD
:1035D00032FE01214DF21020FDF72DFE13214DF298
:1035E0001120FDF728FE01214DF21220FDF723FEE8
:1035F00054214DF21320FDF71EFE01214DF214203F
:10360000FDF719FE82214DF21520FDF714FE012170
:103610004DF21620FDF70FFECA214DF21720FDF7DF
:103620000AFE02214DF21820FDF705FE00214DF2A1
:103630001920FDF700FE02214DF21A20FDF7FBFDD7
:1036400001214DF21B20FDF7F6FD02214DF21C2059
:10365000FDF7F1FD34214DF21D20FDF7ECFD0221B7
:103660004DF21E20FDF7E7FD67214DF21F20FDF70B
:10367000E2FD02214DF22020FDF7DDFD84214DF217
:103680002120FDF7D8FD02214DF22220FDF7D3FDC8
:10369000A4214DF22320FDF7CEFD02214DF224207E
:1036A000FDF7C9FDB7214DF22520FDF7C4FD02212C
:1036B0004DF22620FDF7BFFDCF214DF22720FDF76B
:1036C000BAFD02214DF22820FDF7B5FDDE214DF2B5
:1036D0002920FDF7B0FD02214DF22A20FDF7ABFDB8
:1036E000F2214DF22B20FDF7A6FD02214DF22C20F8
:1036F000FDF7A1FDFE214DF22D20FDF79CFD0321DC
:103700004DF22E20FDF797FD10214DF22F20FDF7F1
:1037100092FD03214DF23020FDF78DFD33214DF256
:103720003120FDF788FD03214DF23220FDF783FDA6
:103730006D214DF23320FDF77EFD00214FF4534003
:10374000FDF779FD33214DF20130FDF774FD0021C5
:103750004DF20230FDF76FFD34214DF20330FDF7DD
:103760006AFD00214DF20430FDF765FD3A214DF26E
:103770000530FDF760FD00214DF20630FDF75BFDE1
:103780004A214DF20730FDF756FD00214DF2083079
:10379000FDF751FD5C214DF20930FDF74CFD002194
:1037A0004DF20A30FDF747FD81214DF20B30FDF758
:1037B00042FD00214DF20C30FDF73DFDA6214DF2FA
:1037C0000D30FDF738FD00214DF20E30FDF733FDD1
:1037D000E5214DF20F30FDF72EFD01214DF21030A5
:1037E000FDF729FD13214DF21130FDF724FD0121D4
:1037F0004DF21230FDF71FFD54214DF21330FDF74D
:103800001AFD01214DF21430FDF715FD82214DF214
:103810001530FDF710FD01214DF21630FDF70BFDBF
:10382000CA214DF21730FDF706FD02214DF2183086
:10383000FDF701FD00214DF21930FDF7FCFC0221DE
:103840004DF21A30FDF7F7FC01214DF21B30FDF768
:10385000F2FC02214DF21C30FDF7EDFC34214DF25B
:103860001D30FDF7E8FC02214DF21E30FDF7E3FCB0
:1038700067214DF21F30FDF7DEFC02214DF22030B2
:10388000FDF7D9FC84214DF22130FDF7D4FC022153
:103890004DF22230FDF7CFFCA4214DF22330FDF78D
:1038A000CAFC02214DF22430FDF7C5FCB7214DF2D0
:1038B0002530FDF7C0FC02214DF22630FDF7BBFCA0
:1038C000CF214DF22730FDF7B6FC02214DF2283012
:1038D000FDF7B1FCDE214DF22930FDF7ACFC0221F1
:1038E0004DF22A30FDF7A7FCF2214DF22B30FDF707
:1038F000A2FC02214DF22C30FDF79DFCFE214DF281
:103900002D30FDF798FC03214DF22E30FDF793FC8E
:1039100010214DF22F30FDF78EFC03214DF2303097
:10392000FDF789FC33214DF23130FDF784FC032192
:103930004DF23230FDF77FFC6D214DF23330FDF753
:103940007AFC00214FF45440FDF775FC33214DF211
:103950000140FDF770FC00214DF20240FDF76BFCC9
:1039600034214DF20340FDF766FC00214DF2044086
:10397000FDF761FC3A214DF20540FDF75CFC0021AA
:103980004DF20640FDF757FC4A214DF20740FDF786
:1039900052FC00214DF20840FDF74DFC5C214DF238
:1039A0000940FDF748FC00214DF20A40FDF743FCB9
:1039B00081214DF20B40FDF73EFC00214DF20C4001
:1039C000FDF739FCA6214DF20D40FDF734FC002136
:1039D0004DF20E40FDF72FFCE5214DF20F40FDF7B3
:1039E0002AFC01214DF21040FDF725FC13214DF278
:1039F0001140FDF720FC01214DF21240FDF71BFCA8
:103A000054214DF21340FDF716FC01214DF21440F4
:103A1000FDF711FC82214DF21540FDF70CFC012150
:103A20004DF21640FDF707FCCA214DF21740FDF795
:103A300002FC02214DF21840FDF7FDFB00214DF282
:103A40001940FDF7F8FB02214DF21A40FDF7F3FB98
:103A500001214DF21B4000E0FFE2FDF7ECFB0221EB
:103A60004DF21C40FDF7E7FB34214DF21D40FDF700
:103A7000E2FB02214DF21E40FDF7DDFB67214DF216
:103A80001F40FDF7D8FB02214DF22040FDF7D3FB8C
:103A900084214DF22140FDF7CEFB02214DF2224060
:103AA000FDF7C9FBA4214DF22340FDF7C4FB022121
:103AB0004DF22440FDF7BFFBB7214DF22540FDF745
:103AC000BAFB02214DF22640FDF7B5FBCF214DF2A6
:103AD0002740FDF7B0FB02214DF22840FDF7ABFB7C
:103AE000DE214DF22940FDF7A6FB02214DF22A40CE
:103AF000FDF7A1FBF2214DF22B40FDF79CFB0221CB
:103B00004DF22C40FDF797FBFE214DF22D40FDF7C5
:103B100092FB03214DF22E40FDF78DFB10214DF25B
:103B20002F40FDF788FB03214DF23040FDF783FB6A
:103B300033214DF23140FDF77EFB03214DF232403F
:103B4000FDF779FB6D214DF23340FDF774FB002149
:103B50004FF45540FDF76FFB33214DF20150FDF757
:103B60006AFB00214DF20250FDF765FB34214DF256
:103B70000350FDF760FB00214DF20450FDF75BFBA5
:103B80003A214DF20550FDF756FB00214DF206504B
:103B9000FDF751FB4A214DF20750FDF74CFB002188
:103BA0004DF20850FDF747FB5C214DF20950FDF73F
:103BB00042FB00214DF20A50FDF73DFB81214DF201
:103BC0000B50FDF738FB00214DF20C50FDF733FB95
:103BD000A6214DF20D50FDF72EFB00214DF20E50A7
:103BE000FDF729FBE5214DF20F50FDF724FB0121E4
:103BF0004DF21050FDF71FFB13214DF21150FDF750
:103C00001AFB01214DF21250FDF715FB54214DF224
:103C10001350FDF710FB01214DF21450FDF70BFB83
:103C200082214DF21550FDF706FB01214DF2165091
:103C3000FDF701FBCA214DF21750FDF7FCFA0221F6
:103C40004DF21850FDF7F7FA00214DF21950FDF72B
:103C5000F2FA02214DF21A50FDF7EDFA01214DF270
:103C60001B50FDF7E8FA02214DF21C50FDF7E3FA74
:103C700034214DF21D50FDF7DEFA02214DF21E50A7
:103C8000FDF7D9FA67214DF21F50FDF7D4FA022152
:103C90004DF22050FDF7CFFA84214DF22150FDF76F
:103CA000CAFA02214DF22250FDF7C5FAA4214DF2C5
:103CB0002350FDF7C0FA02214DF22450FDF7BBFA64
:103CC000B7214DF22550FDF7B6FA02214DF22650EC
:103CD000FDF7B1FACF214DF22750FDF7ACFA0221E2
:103CE0004DF22850FDF7A7FADE214DF22950FDF7DD
:103CF000A2FA02214DF22A50FDF79DFAF2214DF26F
:103D00002B50FDF798FA02214DF22C50FDF793FA53
:103D1000FE214DF22D50FDF78EFA03214DF22E506B
:103D2000FDF789FA10214DF22F50FDF784FA032197
:103D30004DF23050FDF77FFA33214DF23150FDF74F
:103D40007AFA03214DF23250FDF775FA6D214DF2EA
:103D50003350FDF770FA00214FF45640FDF76BFA2F
:103D600033214DF20160FDF766FA00214DF2026049
:103D7000FDF761FA34214DF20360FDF75CFA002192
:103D80004DF20460FDF757FA3A214DF20560FDF758
:103D900052FA00214DF20660FDF74DFA4A214DF22C
:103DA0000760FDF748FA00214DF20860FDF743FA7D
:103DB0005C214DF20960FDF73EFA00214DF20A60E8
:103DC000FDF739FA81214DF20B60FDF734FA00213D
:103DD0004DF20C60FDF72FFAA6214DF20D60FDF7B4
:103DE0002AFA00214DF20E60FDF725FAE5214DF289
:103DF0000F60FDF720FA01214DF21060FDF71BFA6C
:103E000013214DF21160FDF716FA01214DF21260F7
:103E1000FDF711FA54214DF21360FDF70CFA012160
:103E20004DF21460FDF707FA82214DF21560FDF79F
:103E300002FA01214DF21660FDF7FDF9CA214DF29B
:103E40001760FDF7F8F902214DF21860FDF7F3F95C
:103E500000214DF21960FDF7EEF902214DF21A60D2
:103E6000FDF7E9F901214DF21B60FDF7E4F90221AC
:103E70004DF21C60FDF7DFF934214DF21D60FDF7B6
:103E8000DAF902214DF21E60FDF7D5F967214DF2F6
:103E90001F60FDF7D0F902214DF22060FDF7CBF94C
:103EA00084214DF22160FDF7C6F902214DF2226016
:103EB000FDF7C1F9A4214DF22360FDF7BCF9022101
:103EC0004DF22460FDF7B7F9B7214DF22560FDF7FB
:103ED000B2F902214DF22660FDF7ADF9CF214DF286
:103EE0002760FDF7A8F902214DF22860FDF7A3F93C
:103EF000DE214DF22960FDF79EF902214DF22A6084
:103F0000FDF799F9F2214DF22B60FDF794F90221AA
:103F10004DF22C60FDF78FF9FE214DF22D60FDF77B
:103F20008AF903214DF22E60FDF785F910214DF23B
:103F30002F60FDF780F903214DF23060FDF77BF92A
:103F400033214DF23160FDF776F903214DF23260F5
:103F5000FDF771F96D214DF23360FDF76CF95521D4
:103F60001846FDF768F9AA212046FDF764F95221A9
:103F70002846FDF760F908213046FDF75CF900217D
:103F80004846FDF758F9CC215846FDF754F9002171
:103F90004BF20110FDF74FF905215046FDF74BF9A3
:103FA00070214FF43740FDF746F970214BF2017054
:103FB000FDF741F901214FF43840FDF73CF90321A9
:103FC0004BF60100FDF737F903214BF60200FDF730
:103FD00032F903214BF60300FDF72DF902214FF4CE
:103FE0003C40FDF728F900214BF60140FDF723F98D
:103FF00000214BF60240FDF71EF9D0214FF4494055
:10400000FDF719F902214CF60110FDF714F95021C2
:104010004CF60210FDF70FF950214CF60310FDF796
:104020000AF950214CF60410FDF705F900214FF470
:104030005450FDF700F955214FF46850FDF7FBF897
:104040004FF48850FDF7E8F8782004F063FE4FF451
:104050002450FDF7E1F801F005B9A0F513414FF444
:10406000E06640F2022940F23F1A4FF4274B25390F
:1040700021D0F41DC91E7DD04FF41C5B08317AD0CD
:10408000113979D0A0F5A841083976D0A0F5A8510A
:10409000053973D0B1F5204171D0B1F580516FD0A1
:1040A000A0F58A4131396CD0091F6BD0A0F5C851F9
:1040B000633968D0CFE747F6F001E520FDF7BBF89C
:1040C00029460120FDF7B7F831460220FDF7B3F885
:1040D00041F230010320FDF7AEF800210420FDF786
:1040E000AAF849460820FDF7A6F800210920FDF7A7
:1040F000A2F800210A20FDF79EF800210C20FDF710
:104100009AF800210D20FDF796F800210F20FDF709
:1041100092F800211020FDF78EF807211120FDF7FD
:104120008AF800211220FDF786F800211320FDF700
:1041300082F800210720FDF77EF841F290611020FF
:10414000FDF779F840F227211120FDF774F89D2141
:104150001220FDF770F84FF4C8511320FDF76BF8EB
:1041600025212920FDF767F80D212B20FDF763F8A5
:10417000072109E07BE067E10DE2E7E284E3FDE38C
:10418000FDE3FDE3FDE3FDE33020FDF754F840F2ED
:1041900003313120FDF74FF803213220FDF74BF8B2
:1041A00040F206213520FDF746F808213620FDF7BC
:1041B00042F840F206413720FDF73DF84FF44171D7
:1041C0003820FDF738F807213920FDF734F840F2A0
:1041D00002613C20FDF72FF808213D20FDF72BF868
:1041E00000215020FDF727F8EF215120FDF723F89B
:1041F00000215220FDF71FF851465320FDF71BF810
:1042000059466020FDF717F801216120FDF713F8EA
:1042100000216A20FDF70FF800218020FDF70BF840
:1042200000218120FDF707F800218220FDF703F827
:1042300000218320FCF7FFFF00218420FCF7FBFF17
:1042400000218520FCF7F7FF10219020FCF7F3FFF9
:104250004FF4C0619220FCF7EEFF40F233110720CB
:10426000FCF7E9FF22210020FCF7E5FFF3E641F22D
:104270008F01EC20FCF7DFFF41F23421EF20FCF747
:10428000DAFF29460120FCF7D6FF31460220FCF771
:10429000D2FF41F230010320FCF7CDFF00210420C2
:1042A000FCF7C9FF49460820FCF7C5FF002109209B
:1042B000FCF7C1FF00210A20FCF7BDFF01210C2003
:1042C000FCF7B9FF00210D20FCF7B5FF00210F20FE
:1042D000FCF7B1FF00211020FCF7ADFF07211120F2
:1042E000FCF7A9FF00211220FCF7A5FF00211320F5
:1042F000FCF7A1FF01210720FCF79DFF322004F00D
:1043000028FD41F290411020FCF795FF40F2272153
:104310001120FCF790FF322004F01BFD8A211220AF
:10432000FCF789FF322004F014FD4FF4D051132024
:10433000FCF781FF06212920FCF77DFF0D212B20B2
:10434000FCF779FF322004F004FD00212020FCF767
:1043500072FF00212120FCF76EFF322004F0F9FCEF
:1043600000213020FCF767FF40F204613120FCF7A8
:1043700062FF40F205313220FCF75DFF002135205D
:10438000FCF759FF40F609413620FCF754FF4FF483
:1043900001713720FCF74FFF40F201313820FCF764
:1043A0004AFF21463920FCF746FF00213C20FCF75C
:1043B00042FF40F60A213D20FCF73DFF322004F089
:1043C000C8FC00215020FCF736FFEF215120FCF7FC
:1043D00032FF00215220FCF72EFF51465320FCF7FC
:1043E0002AFF59466020FCF726FF01216120FCF7D7
:1043F00022FF00216A20FCF71EFF00218020FCF72D
:104400001AFF00218120FCF716FF00218220FCF713
:1044100012FF00218320FCF70EFF00218420FCF70F
:104420000AFF00218520FCF706FF10219020FCF7F1
:1044300002FF4FF4C0619220FCF7FDFE40F2331101
:104440000720FCF7F8FE06E600210846FCF7F3FE1D
:1044500029460120FCF7EFFE31460220FCF7EBFE77
:1044600041F230010320FCF7E6FE00210420FCF7B6
:10447000E2FE49460820FCF7DEFE00210920FCF799
:10448000DAFE00210A20FCF7D6FE01210C20FCF701
:10449000D2FE00210D20FCF7CEFE00210F20FCF7FC
:1044A000CAFE322004F055FC40F201110720FCF74F
:1044B000C2FE322004F04DFC4FF486511020FCF770
:1044C000BAFE07211120FCF7B6FE4FF48873194697
:1044D0001220FCF7B0FE4FF430611320FCF7ABFE66
:1044E00000212920FCF7A7FE44F210012B20FCF745
:1044F000A2FE00215020FCF79EFEEF215120FCF788
:104500009AFE00215220FCF796FE51465320FCF7FC
:1045100092FE59466020FCF78EFE01216120FCF7D7
:104520008AFE00216A20FCF786FE00218020FCF72D
:1045300082FE00218120FCF77EFE00218220FCF714
:104540007AFE00218320FCF776FE00218420FCF710
:1045500072FE00218520FCF76EFE10219020FCF7F2
:104560006AFE00219220FCF766FE01219320FCF7F1
:1045700062FE19469520FCF75EFE00219720FCF7AD
:104580005AFE00219820FCF756FE40F273110720D6
:10459000FCF751FE5FE541F21401E720FCF74BFE0A
:1045A00029460120FCF747FE4FF400710220FCF77A
:1045B00042FE41F238010320FCF73DFE4946082047
:1045C000FCF739FE00210920FCF735FE00210A2006
:1045D000FCF731FE00210C20FCF72DFE00210D2000
:1045E000FCF729FE00210F20FCF725FE00211020FA
:1045F000FCF721FE07211120FCF71DFE00211220EF
:10460000FCF719FE00211320FCF715FEC82004F06A
:10461000A0FB41F290611020FCF70DFE40F2272133
:104620001120FCF708FE322004F093FB0C2112202D
:10463000FCF701FE322004F08CFB4FF400611320E4
:10464000FCF7F9FD11212920FCF7F5FD0B212B20AA
:10465000FCF7F1FD322004F07CFB00212020FCF768
:10466000EAFD51462120FCF7E6FD00213020FCF751
:10467000E2FD4FF4837319463120FCF7DCFD002185
:104680003220FCF7D8FD4FF401713520FCF7D3FD43
:1046900041F20A613620FCF7CEFD21463720FCF7B7
:1046A000CAFD19463820FCF7C6FD21463920FCF723
:1046B000C2FD40F202413C20FCF7BDFD40F60F4137
:1046C0003D20FCF7B8FD00215020FCF7B4FDEF21A0
:1046D0005120FCF7B0FD00215220FCF7ACFD514603
:1046E0005320FCF7A8FD59466020FCF7A4FD0121EA
:1046F0006120FCF7A0FD00216A20FCF79CFD002151
:104700008020FCF798FD00218120FCF794FD00211A
:104710008220FCF790FD00218320FCF78CFD002116
:104720008420FCF788FD00218520FCF784FD102102
:104730009020FCF780FD4FF4C0619220FCF77BFDD8
:1047400040F233110720FCF776FD84E4294601206E
:10475000FCF771FD31460220FCF76DFD41F230019E
:104760000320FCF768FD00210420FCF764FD40F203
:1047700007210820FCF75FFD00210920FCF75BFD05
:1047800000210A20FCF757FD00210C20FCF753FD07
:1047900000210D20FCF74FFD00210F20FCF74BFD01
:1047A000142004F0D6FA41F2B0611020FCF743FD6A
:1047B00001211120FCF73FFD01211720FCF73BFDF3
:1047C0004FF49C711220FCF736FD4FF4006113206A
:1047D000FCF731FD09212920FCF72DFD09212A20B4
:1047E000FCF729FD0021A420FCF725FD0021502025
:1047F000FCF721FDEF215120FCF71DFD0021522087
:10480000FCF719FD51465320FCF715FD5946602071
:10481000FCF711FD01216120FCF70DFD00216A204C
:10482000FCF709FD00218020FCF705FD0021812017
:10483000FCF701FD00218220FCF7FDFC0021832014
:10484000FCF7F9FC00218420FCF7F5FC0021852011
:10485000FCF7F1FC13219020FCF7EDFC00219220E5
:10486000FCF7E9FC03219320FCF7E5FC4FF4887189
:104870009520FCF7E0FC40F273110720FCF7DBFC0D
:10488000322004F066FA15E400210720FCF7D3FC7F
:10489000322004F05EFA4FF48E711220FCF7CBFC4C
:1048A0000121A420FCF7C7FC0F210820FCF7C3FC62
:1048B00008210A20FCF7BFFC08210D20FCF7BBFCF7
:1048C00021463020FCF7B7FC07213120FCF7B3FC70
:1048D00040F203613220FCF7AEFC31463320FCF796
:1048E000AAFC49463420FCF7A6FC02213520FCF73F
:1048F000A2FC41F60F713620FCF79DFC21463720C3
:10490000FCF799FC00213820FCF795FC00213920A8
:10491000FCF791FC21463A20FCF78DFC00213B205E
:10492000FCF789FC07213C20FCF785FC00213D2099
:10493000FCF781FC322004F00CFA01210720FCF77F
:104940007AFC01211720FCF776FC322004F001FAF2
:104950004FF4BD511020FCF76EFC40F217211120DE
:10496000FCF769FC4FF48F711220FCF764FC4FF4E4
:1049700070611320FCF75FFC002104E094E08EE1FD
:1049800058E20CE3B6E32A20FCF755FC0A21292063
:10499000FCF751FC4FF49F711220FCF74CFC0021F6
:1049A0005020FCF748FCEF215120FCF744FC00218B
:1049B0005220FCF740FC51465320FCF73CFC594682
:1049C0006020FCF738FC01216120FCF734FC002159
:1049D0006A20FCF730FC00218020FCF72CFC002131
:1049E0008120FCF728FC00218220FCF724FC002118
:1049F0008320FCF720FC00218420FCF71CFC002114
:104A00008520FCF718FC13219020FCF714FC4FF4D0
:104A100040719220FCF70FFC05219320FCF70BFC62
:104A200000219520FCF707FC00219720FCF703FCF0
:104A300000219820FCF7FFFB29460120FCF7FBFB37
:104A400031460220FCF7F7FB41F238010320FCF766
:104A5000F2FB00210420FCF7EEFB00210C20FCF708
:104A6000EAFB00210F20FCF7E6FB00212020FCF7E9
:104A7000E2FB00212120FCF7DEFB21210720FCF7CF
:104A8000DAFB142004F065F961210720FCF7D3FB61
:104A9000142004F05EF940F273110720FCF7CBFB01
:104AA000142004F056F9DDE300210846FCF7C3FBAF
:104AB00000210846FCF7BFFB00210846FCF7BBFBC2
:104AC00000210846FCF7B7FB0121A420FCF7B3FB4B
:104AD000142004F03EF959466020FCF7ACFB49462F
:104AE0000820FCF7A8FB4FF405713020FCF7A3FB6E
:104AF00043F215713120FCF79EFB40F20461322035
:104B0000FCF799FB40F616613320FCF794FB42F268
:104B100011213420FCF78FFB4FF4A8513520FCF70E
:104B20008AFB48F207513620FCF785FB41F207412A
:104B30003720FCF780FB41F203413820FCF77BFB78
:104B400020213920FCF777FB1A219020FCF773FB1A
:104B500000211020FCF76FFB07211120FCF76BFBF5
:104B600000211220FCF767FB00211320FCF763FBF8
:104B7000142004F0EEF84FF4E6611020FCF75BFB24
:104B800040F237111120FCF756FB142004F0E1F835
:104B90004FF4DC711220FCF74EFB142004F0D9F81E
:104BA0004FF470611320FCF746FB80212A20FCF7AC
:104BB00042FB48212920FCF73EFB142004F0C9F8F1
:104BC00029460120FCF737FB31460220FCF733FB76
:104BD00041F238010320FCF72EFB49460820FCF780
:104BE0002AFB00210A20FCF726FB00210C20FCF701
:104BF00022FB00210D20FCF71EFB30210E20FCF7CC
:104C00001AFB00215020FCF716FBEF215120FCF786
:104C100012FB00215220FCF70EFB51465320FCF7FB
:104C20000AFB59466020FCF706FB01216120FCF7D6
:104C300002FB00216A20FCF7FEFA11219020FCF70C
:104C4000FAFA4FF4C0619220FCF7F5FA40F2024103
:104C50009320FCF7F0FA02219420FCF7ECFA1420E0
:104C600004F077F801210720FCF7E5FA142004F09E
:104C700070F861210720FCF7DEFA40F2731107207B
:104C8000FCF7D9FA00212020FCF7D5FA00212120D9
:104C9000FCF7D1FA22210020FCF7CDFAE2E2002154
:104CA0000846FCF7C8FA00210846FCF7C4FA1420AD
:104CB00004F04FF800210846FCF7BDFA0021084631
:104CC000FCF7B9FA00210846FCF7B5FA00210846BE
:104CD000FCF7B1FA0121A420FCF7ADFA142004F08E
:104CE00038F859466020FCF7A6FA40F6060108207D
:104CF000FCF7A1FA40F2037319463020FCF79BFA47
:104D000001213120FCF797FA04213220FCF793FAB5
:104D10004FF481713320FCF78EFA4FF44074214632
:104D20003420FCF788FA40F203113520FCF783FAAF
:104D30001F213620FCF77FFA19463720FCF77BFA53
:104D400001213820FCF777FA04213920FCF773FAA7
:104D500015219020FCF76FFA4FF482611020FCF7C8
:104D60006AFA40F247211120FCF765FA4FF4DE7130
:104D70001220FCF760FA4FF460611320FCF75BFA35
:104D8000782003F0E6FF29460120FCF754FA4FF49F
:104D900000710220FCF74FFA41F230010320FCF7CA
:104DA0004AFA08210A20FCF746FA00210C20FCF7F9
:104DB00042FA20210E20FCF73EFA00210F20FCF7DA
:104DC0003AFA00212020FCF736FA00212120FCF7D6
:104DD00032FA3D212A20FCF72EFA142003F0B9FF05
:104DE0002D212920FCF727FA00215020FCF723FA77
:104DF0004DF2EF015120FCF71EFA00215220FCF782
:104E00001AFA51465320FCF716FA00216120FCF7EC
:104E100012FA00216A20FCF70EFA21469220FCF7D4
:104E20000AFA05219320FCF706FA29460720FCF729
:104E300002FA17E201210020FCF7FDF90A2003F035
:104E400088FF41F228611020FCF7F5F90E211220AD
:104E5000FCF7F1F940F639211320FCF7ECF90A20B0
:104E600003F077FF40211120FCF7E5F950211520D0
:104E7000FCF7E1F90A2003F06CFF1E211220FCF779
:104E8000DAF90A2003F065FF4FF4B1511020FCF766
:104E9000D2F942F639211320FCF7CDF90A2003F0AC
:104EA00058FF29460120FCF7C6F94FF44071022053
:104EB000FCF7C1F941F238010320FCF7BCF949467F
:104EC0000820FCF7B8F908210A20FCF7B4F9002102
:104ED0003020FCF7B0F940F202413120FCF7ABF989
:104EE0004FF483713220FCF7A6F940F203513320CE
:104EF000FCF7A1F94FF482713420FCF79CF940F2E1
:104F000001313520FCF797F921463620FCF793F95B
:104F100040F205313720FCF78EF94FF4027138204A
:104F2000FCF789F940F60B713920FCF784F902216E
:104F30004120FCF780F959466020FCF77CF90121FB
:104F40006120FCF778F94FF404719020FCF773F9B5
:104F50004FF485719220FCF76EF904219320FCF741
:104F60006AF92946A020FCF766F901210720FCF721
:104F700062F921210720FCF75EF923210720FCF7C5
:104F80005AF933210720FCF756F940F23311072074
:104F9000FCF751F90021A020FCF74DF962E1302126
:104FA0001520FCF748F910219A20FCF744F920213C
:104FB0001120FCF740F943F228411020FCF73BF99F
:104FC00002211220FCF737F941F238011320FCF7D7
:104FD00032F9282003F0BDFE12210846FCF72BF918
:104FE000282003F0B6FE43F220411020FCF723F9FD
:104FF00043F238011320FCF71EF9462003F0A9FE06
:1050000000213020FCF717F940F202413120FCF773
:1050100012F940F207313220FCF70DF94FF44171DB
:105020003320FCF708F904213420FCF704F940F29E
:1050300001413520FCF7FFF821463620FCF7FBF84C
:1050400040F205313720FCF7F6F84FF4C2631946F9
:105050003820FCF7F0F819463920FCF7ECF829461F
:105060000120FCF7E8F84FF440710220FCF7E3F868
:1050700041F230010320FCF7DEF840F60801082079
:10508000FCF7D9F808210A20FCF7D5F8594660202A
:10509000FCF7D1F801216120FCF7CDF84FF49F71A6
:1050A0009020FCF7C8F829469220FCF7C4F829465E
:1050B0009320FCF7C0F84FF44051A020FCF7BBF858
:1050C0001021A320FCF7B7F801210720FCF7B3F863
:1050D00021210720FCF7AFF823210720FCF7ABF8CC
:1050E00033210720FCF7A7F840F233110720FCF723
:1050F000A2F8B7E0E220FCF78FF81D20FCF78FF84C
:105100000220FCF78CF80420FCF789F8642003F0F7
:1051100001FEE020FCF780F80120FCF780F80A206F
:1051200003F017FEE020FCF777F80320FCF777F890
:105130000C2003F00EFE0120FCF76EF80A2003F0AD
:1051400008FEE620FCF768F82F20FCF768F8FF203F
:10515000FCF765F8FF20FCF762F8B020FCF75CF87C
:105160002020FCF75CF80020FCF759F80320FCF73E
:1051700056F840F21F30FCF752F80120FCF74FF8C8
:1051800040F2DF10FCF74BF80020FCF748F8B420A1
:10519000FCF742F80420FCF742F840F21F40FCF70D
:1051A0003EF80020FCF73BF82E20FCF738F80020F2
:1051B000FCF735F80020FCF732F80020FCF72FF858
:1051C0000020FCF72CF8B620FCF726F80220FCF7AC
:1051D00026F84FF40370FCF722F80020FCF71FF8C4
:1051E0001720FCF71CF81520FCF719F80020FCF735
:1051F00016F80020FCF713F8F020FCF70DF8032058
:10520000FCF70DF82920FCF707F8D020FCF704F88C
:105210000020FCF704F8BE20FBF7FEFF0520FBF79B
:10522000FEFFFE20FBF7FBFF0120FBF7F8FF00204D
:10523000FBF7F5FF0020FBF7F2FF0020FBF7EFFF85
:10524000B820FBF7E9FF0320FBF7E9FF0120FBF79C
:10525000E6FFBA20FBF7E0FF0120FBF7E0FF642048
:10526000FCF730FB0020FCF74FFBFA48C0F88081C8
:105270003846FCF7E0FC1FB0BDE8F08F2DE9F8439D
:105280008146089E9846F44DA888A0F5D043043B7B
:1052900002D1A879012806D0A2EB0900401C87B2F0
:1052A0000C46EE4D2BE00C462888811A491E89B227
:1052B0004246A0EB0900401E83B20020A8712A27B5
:1052C0006F814FF02B08A5F80C8020460096FFF761
:1052D000D5FF0120A871A5F80A80AF81BDE8F88349
:1052E00021464846FBF7CBFFFBF7B3FF002002E067
:1052F0002E80401C80B2B842FAD3641CA4B244454C
:10530000EED9EBE72DE9F0478246DDF820800E4626
:10531000A2EB0A00401C85B2981B401C87B20024F7
:10532000DFF8389314E0301981B25046FBF7A7FF3D
:10533000FBF78FFF002207E004FB052038F8100080
:10534000A9F80000521C92B2AA42F5D3641CA4B280
:10535000BC42E8D3BDE8F0872DE9FE4F00250026CA
:10536000171AA3EB010881468A46681E002F03DD49
:105370004FF00101019107E003D14FF000010191CD
:1053800002E00190C7F10007B8F1000F03DD4FF014
:105390000100009007E003D14FF00000009002E010
:1053A0000090C8F10008474501DD3C4600E0444656
:1053B0004FF0000B601C029015E01FFA8AF11FFAF3
:1053C00089F0FCF7D8F93D444644A54202DD2D1B87
:1053D00001988144A64202DD361B009882440BF1FD
:1053E000010B1FFA8BFB02988345E6DDBDE8FE8FBB
:1053F000F0B505460E4614461F4633462246314652
:105400002846FFF7A9FF3B462A4631462846FFF7C4
:10541000A3FF3B46224639462846FFF79DFF3B4601
:10542000224631462046BDE8F04095E72DE9FC4F85
:1054300007468846002415460320A0EB42064BE0B1
:10544000A8EB050081B207EB040A01901FFA8AF06D
:10545000FCF791F9A8EB040081B207EB0509009075
:105460001FFA89F0FCF787F908EB040B1FFA8BF1A0
:105470001FFA89F0FCF77FF908EB05091FFA89F19B
:105480001FFA8AF0FCF777F91FFA89F1A7EB0409F4
:105490001FFA89F0FCF76FF9A7EB050A1FFA8BF1E9
:1054A0001FFA8AF0FCF767F9019881B21FFA89F0B8
:1054B000FCF761F9009881B21FFA8AF0FCF75BF9FA
:1054C000641C002E03DA06EB8406B61D04E0601BA4
:1054D00006EB80060A366D1EAC42B1DDBDE8FC8FDE
:1054E0002DE9F84F82460C461F46A346780701D0A7
:1054F000012000E0002000EBD70079084843C0B24B
:105500000090203A02F0FF09002649E00C2F14D049
:10551000102F19D0182F46D1514909EBC90001EBC2
:105520008000855D4FF00008280612D54D482146C1
:1055300002885046FCF729F913E04B4909EB490072
:1055400001EB8000855DEDE7484800EB0910855DC3
:10555000E8E70A9828B94348214642885046FCF7B4
:1055600014F96806050E641CA4B23B484088A042AA
:1055700019D9A4EB0B00B84209D15C460AF1010A23
:105580001FFA8AFA3448008850450CD906E008F121
:10559000010808F0FF08B8F1080FC5D3761CF6B271
:1055A00000988642B2D3BDE8F88F0346012000E0A0
:1055B0005843491EC9B2FBD270472DE9FF4F81B055
:1055C0008046DDF838B092461D4600260024A146EC
:1055D0004FEA5B071FE0281B401EC1B20A20FFF7FD
:1055E000E4FFBAFBF0F00A21B0FBF1F201FB12007C
:1055F00026B9691E8C4201DA88B101263030C2B268
:1056000007FB048080B25B46CDF800900299FFF75B
:1056100067FF641CE4B2AC42DDD305B02CE607FBA7
:10562000048080B25B462022CDF800900299FFF7FB
:1056300057FFEEE72DE9FF4F81B08046DDF83CA033
:1056400093461F464FF0000900240E980AF001050A
:1056500046082FE000802142002100200008006C55
:105660001AB801085A000020B6AD01082AB2010894
:10567000381B401EC1B20A20FFF797FFBBFBF0F0BA
:105680000A21B0FBF1F201FB1200B9F1000F05D1C4
:10569000791E8C4202DA80B14FF001093030C2B27B
:1056A00006FB048080B200950E9B0299FFF718FF5D
:1056B000641CE4B2BC42DBD3AFE75FEA0A6009D501
:1056C00006FB048080B2009530220E9B0299FFF702
:1056D00007FFEDE706FB048080B2009520220E9BB9
:1056E0000299FFF7FDFEE3E72DE9F84F0446DDE9F7
:1056F0000A760D4604F0FF0810191FFA80F95819B0
:105700001FFA80FA4FF0000B11E04C4502D34446DB
:10571000E81985B255450FD23B4629462046CDF8BB
:1057200000B0FFF7DDFE04EB570084B2761C327840
:10573000A2F120005E28E8D935E700002DE9F0410C
:10574000ADF5806D80460C466E46CE4D00272F800D
:105750004FF48061CC4811F062FE4146CBA000F0CE
:1057600095FB012003F0F5FA74B911E00A2003F06B
:10577000F0FA2888000407D52888C349C0F30E0032
:105780000F540E462F8003E0641E2404240CEDD138
:105790000DF5806D3046BDE8F08101460020B94A24
:1057A00013881B0407D51288B74BC2F30E02985416
:1057B000184611F05CBD70472DE9F0478946144644
:1057C0000026B04F00253D800146B1A000F05EFBF1
:1057D000012003F0BEFAB9F1000F1BD0D4B1DFF8FD
:1057E000A88211E00A2003F0B4FA388800040BD52F
:1057F0004846FFF7D2FF20B1A349A5A011F0D6FA81
:1058000006E03D8088F80050641E2404240CE9D191
:1058100004B901263046BDE8F08730B5ADF5317DDD
:1058200005460C469CA101A811F033FD294601A8AC
:1058300011F072FD9EA101A811F06EFD214601A894
:1058400011F06AFDA1A101A811F066FDA1A121A896
:1058500011F01FFD01A811F040FD421CA1A131A8CB
:1058600011F0B0FA31A921A811F056FD00208DF8F1
:10587000C40000249C4D31A855F8241011F04CFDB3
:105880009AA131A811F048FD641CE4B2032CF2D3B4
:1058900021A931A811F040FD95A131A811F03CFDDE
:1058A00001A931A811F038FD90A131A811F034FD03
:1058B000322131A8FFF742FF04468FA1204611F0A4
:1058C000D6FC00281CD032228DA18EA0FFF774FFD9
:1058D00064228FA190A0FFF76FFF0028F8D1322239
:1058E00087A197A0FFF768FF142285A198A0FFF772
:1058F00063FF322131A8FFF721FF0DF5317D30BD67
:105900002046FAE770B5A8B004460025A0229349C6
:10591000684611F052FD2146684611F0FDFC90A149
:10592000684611F0F9FC01246F4E684656F82410C1
:1059300011F0F2FC6DA1684611F0EEFC641CE4B2BB
:10594000042CF2D332216846FFF7F8FE87A111F04C
:105950008EFC3A2111F081FC401C6FF02F0208E010
:1059600022290CD005EB850302EB430319448DB2C9
:10597000401C01787D29F3D128B0284670BD401C19
:10598000F7E710B532225EA17DA0FFF715FF3222A6
:105990005BA17EA0FFF710FF4FF47A74204603F05E
:1059A000D8F962107BA17EA0FFF706FF10B101209D
:1059B00003F0CFF9204603F0CCF9322250A151A0D8
:1059C000FFF7FAFE204603F0C4F9C82250A152A006
:1059D000FFF7F2FE10B1012003F0BBF9322248A11B
:1059E00057A0FFF7E9FE012003F0B3F9322244A1EA
:1059F00057A0FFF7E1FEBDE81040012003F0A9B970
:105A000010B56EA000F07AF94FF47A7003F0A1F9A6
:105A100014223BA16AA0FFF7CFFE04461CB169A087
:105A200011F0C4F902E06CA011F0C0F9204610BDDD
:105A3000FEB5002100222C4C0027083C002802D093
:105A40006D460A230EE0302020706770FEBD90FB8B
:105A5000F3F603FB160630368C46491C05F80C603D
:105A600090FBF3F00028F2D16F54491E05E0084680
:105A7000491E2B5C1046521C23540029F7DAA75408
:105A8000FEBD000078000020BE2500202573000028
:105A900025730D0A000000007B2264617461737439
:105AA0007265616D73223A5B7B226964223A22003F
:105AB000222C2264617461706F696E7473223A5B88
:105AC0007B2276616C7565223A0000007D5D7D5D0C
:105AD0007D000000436F6E74656E742D4C656E67BB
